:100000000C9446000C9465000C9465000C946500FB
:100010000C9465000C9465000C9465000C946500CC
:100020000C9465000C9465000C9465000C946500BC
:100030000C9465000C94D3000C9465000C9465003E
:100040000C9465000C9465000C9465000C9465009C
:100050000C9465000C9465000C9465000C9465008C
:100060000C9465000C9465000C9465000C9465007C
:100070000C9465000C9465000C9465000C9465006C
:100080000C9465000C9465000C94650011241FBE4F
:10009000CFEFD0E4DEBFCDBF11E0A0E0B1E0EEEAEB
:1000A000F7E000E00BBF02C007900D92A032B1074D
:1000B000D9F721E0A0E2B1E001C01D92A334B2075C
:1000C000E1F70E9411030C94D5030C940000CF9328
:1000D000DF9300D01F92CDB7DEB789837B836A831D
:1000E00089818A3031F48A819B81BC018DE00E9434
:1000F000670080EC90E0FC018081882F90E08072A6
:100100009927892BB1F386EC90E02981FC012083AB
:1001100080E090E00F900F900F90DF91CF910895C5
:10012000CF93DF93CDB7DEB781E890E02BE0FC0101
:10013000208388E890E02DE730E0FC0131832083C4
:100140008FE690E022E0FC01208384E890E0FC014F
:100150001182108280910E0190910F01A0911001E7
:10016000B09111018093210190932201A09323016A
:10017000B09324018FE590E02FE530E0F901208174
:100180002068FC0120830000DF91CF910895CF9378
:10019000DF93CDB7DEB781E890E0FC01108200006C
:1001A000DF91CF9108951F920F9200905F000F9200
:1001B000112400905B000F922F933F934F935F9316
:1001C0006F937F938F939F93AF93BF93EF93FF931F
:1001D000CF93DF93CDB7DEB78091210190912201BB
:1001E000A0912301B09124010197A109B109809345
:1001F000210190932201A0932301B09324018091C7
:10020000210190912201A0912301B0912401892B19
:100210008A2B8B2B91F40E94560280910E019091B3
:100220000F01A0911001B0911101809321019093D1
:100230002201A0932301B09324010000DF91CF910C
:10024000FF91EF91BF91AF919F918F917F916F91AE
:100250005F914F913F912F910F9000925B000F9013
:1002600000925F000F901F901895CF93DF9300D0FE
:1002700000D0CDB7DEB769837A838B839C83898175
:100280009A81AB81BC8180930E0190930F01A09362
:100290001001B093110180910E0190910F01A09176
:1002A0001001B09111018093210190932201A0933C
:1002B0002301B093240100000F900F900F900F9036
:1002C000DF91CF910895CF93DF93CDB7DEB78CE761
:1002D00090E02CE730E0F90120812064FC012083CC
:1002E0008AE790E02AE730E0F90120812768FC01E5
:1002F00020830000DF91CF910895CF93DF931F9269
:10030000CDB7DEB789838981877089838CE790E0D8
:100310002CE730E0F9012081322F387F2981232B0F
:10032000FC0120838AE790E02AE730E0F901208190
:100330002064FC01208300008AE790E0FC018081BA
:10034000882F90E080749927892BB1F788E790E097
:10035000FC01808191810F90DF91CF910895CF931F
:10036000DF9300D0CDB7DEB79A83898389819A81E4
:10037000009719F0019749F005C081E090E09A8359
:10038000898304C01A82198201C0000089819A8180
:10039000009791F0019709F010C080E00E947D0164
:1003A000909328018093270181E00E947D01909322
:1003B00042018093410101C0000089819A810F9020
:1003C0000F90DF91CF910895CF93DF9300D0CDB7F9
:1003D000DEB79A83898380912701909128019250FA
:1003E00090932801809327018091410190914201CF
:1003F0009250909342018093410189819A810097A4
:1004000019F0019749F005C081E090E09A83898353
:1004100004C01A82198201C0000089819A81009764
:10042000E9F1019709F03BC08091270190912801E3
:100430008135910518F4109225010EC08091270195
:10044000909128018032934020F082E08093250132
:1004500003C081E080932501809141019091420188
:100460008135910518F4109226010EC0809141014A
:10047000909142018032934020F088E080932601E1
:1004800003C084E08093260185E290E0309125014D
:1004900020912601232BFC01208301C000008981CB
:1004A0009A810F900F90DF91CF9108950F931F9332
:1004B000CF93DF931F92CDB7DEB71982A6C0898193
:1004C000282F30E0C901880F991F820F931F880FD2
:1004D000991F880F991F815D9E4FFC0120813181FA
:1004E000428153818981682F70E0CB01880F991F69
:1004F000860F971F880F991F880F991F855D9E4F44
:10050000FC0180819181A281B381281739074A07B4
:100510005B0708F449C08981082F10E08981282FE2
:1005200030E0C901880F991F820F931F880F991F10
:10053000880F991F8D5C9E4FFC01408151818981FC
:10054000282F30E0C901880F991F820F931F880F51
:10055000991F880F991F875D9E4FFC0180819181B3
:10056000FA0109959C01C801880F991F800F911FFE
:10057000880F991F880F991F875D9E4FFC0131835B
:1005800020838981282F30E0C901880F991F820FAD
:10059000931F880F991F880F991F815D9E4FFC0143
:1005A00010821182128213828981682F70E0898102
:1005B000282F30E0C901880F991F820F931F880FE1
:1005C000991F880F991F815D9E4FFC018081918149
:1005D000A281B38125E030E040E050E0280F391FD0
:1005E0004A1F5B1FCB01880F991F860F971F880F2B
:1005F000991F880F991F815D9E4FFC0120833183D5
:100600004283538389818F5F898382E09981981720
:1006100008F455CF00000F90DF91CF911F910F91FB
:100620000895CF93DF931F92CDB7DEB7198281E291
:1006300090E0FC01108282E290E02FEFFC01208329
:1006400084E290E02FEFFC01208385E290E0FC0142
:1006500010828981282F30E0C901880F991F820FED
:10066000931F880F991F880F991F875D9E4FFC016C
:10067000118210828981682F70E025E030E040E02F
:1006800050E0CB01880F991F860F971F880F991F85
:10069000880F991F855D9E4FFC0120833183428323
:1006A00053838981282F30E0C901880F991F820F59
:1006B000931F880F991F880F991F815D9E4FFC0122
:1006C00010821182128213828981282F30E0C901A1
:1006D000880F991F820F931F880F991F880F991FEA
:1006E0008D5C9E4F2FEA31E0FC01318320838981AC
:1006F0008F5F89838981282F30E0C901880F991F76
:10070000820F931F880F991F880F991F875D9E4F37
:10071000FC01118210828981682F70E025E030E0B1
:1007200040E050E0CB01880F991F860F971F880F7C
:10073000991F880F991F855D9E4FFC01208331838F
:10074000428353838981282F30E0C901880F991F84
:10075000820F931F880F991F880F991F815D9E4FED
:10076000FC0110821182128213828981282F30E0CD
:10077000C901880F991F820F931F880F991F880F37
:10078000991F8D5C9E4F24EE31E0FC013183208364
:100790000E94630185E090E0A0E0B0E0BC01CD01E3
:0E07A0000E9435010E949000FFCFF894FFCF19
:1007AE0000000002000000006700000000000100D1
:1007BE00000002050000000500000005000000001A
:00000001FF
